:0400000019EF00F004
:1000080001820E0133AB0BEF00F00DEF00F017EF9C
:1000180000F0339BD468FC0ED36E010E3726000E19
:0E002800382239223A22019211009FEF0BF08C
:100E000000005EEC0BF0B9EC0BF077EC0BF0F0ECC3
:100E10000AF002C02DF003C02EF0900E2D5C010EE2
:100E20002E58D8B016EF07F018EF07F01CEF07F0B8
:100E3000456A446A1FEF07F00C0E456E446A436A28
:100E40003F6A900E2D5C010E2E58D8B02AEF07F0A5
:100E50002CEF07F032EF07F0020E426E010E416EEA
:100E600044EF07F0590E2D5C020E2E58D8A03BEF30
:100E700007F03DEF07F042EF07F0010E426E416AC6
:100E800044EF07F0426A416A43EC0BF002C018F0ED
:100E900003C019F004C01AF005C01BF043EC0BF0BE
:100EA00002C01CF003C01DF004C01EF005C01FF0FE
:100EB00043EC0BF002C020F003C021F004C022F08C
:100EC00005C023F043EC0BF002C031F003C032F058
:100ED00004C033F005C034F02050315C106E215056
:100EE0003258116E22503358126E23503458136EFC
:100EF000135012100BE1100E105C0E0E1158D8A0FA
:100F000084EF07F086EF07F090EF07F0100E202631
:100F10000E0E2122000E2222000E232224EC0BF0C2
:100F20004550BAEC09F01850315C106E1950325827
:100F3000116E1A503358126E1B503458136E1350E2
:100F400012100BE1100E105C0E0E1158D8A0ABEF72
:100F500007F0ADEF07F0ECEF08F031C018F032C049
:100F600019F033C01AF034C01BF0F0EC0AF002C0E4
:100F70002FF003C030F0D3EF08F0900E2F5C010E7D
:100F80003058D8B0C6EF07F0C8EF07F0CEEF07F043
:100F9000020E426E010E416EECEF08F0590E2F5C0E
:100FA000020E3058D8A0D7EF07F0D9EF07F0ECEFDA
:100FB00008F0010E426E416AECEF08F0416A900EB3
:100FC0002F5C010E3058D8B0E8EF07F0EAEF07F0D9
:100FD000ECEF08F0020E426E010E416EACEC0BF02D
:100FE00002C03DF003C03EF0010E406EECEF08F091
:100FF000010E416E590E2F5C020E3058D8A003EF3F
:1010000008F005EF08F0ECEF08F0010E426E416ABF
:10101000ACEC0BF002C03BF003C03CF04050D8B445
:1010200014EF08F016EF08F0ECEF08F03D503B5CD1
:101030003E503C58D8A01FEF08F021EF08F029EFF0
:1010400008F03D503B5C286E3E503C58296E35EF11
:1010500008F03D503B5C106E3E503C58116EA00EA7
:101060001024286E050E1120296E2850A008146E39
:101070002950D8A0E82A0508156E14C002F015C042
:1010800003F0056A3C0E046EB7EC0AF002502C6EB9
:101090000E0E2C644EEF08F050EF08F054EF08F0FD
:1010A0003C0E3F6E5DEF08F00A0E2C605AEF08F020
:1010B0005CEF08F05DEF08F03F6AD8902930106EC1
:1010C0002830166E10C017F016503D242A6E1750A7
:1010D0003E202B6EA00E2A5C050E2B58D8A073EF75
:1010E00008F075EF08F079EF08F0A00E2A5E050E03
:1010F0002B5A3F502A5C356E2B50D8A02B04366EED
:1011000036BE8CEF08F0D10E355C020E3658D8A0F2
:101110008CEF08F08EEF08F094EF08F0600E3526A3
:10112000FA0E3622A6EF08F036AEA0EF08F0300E29
:10113000355CFD0E3658D8B0A0EF08F0A2EF08F0ED
:10114000A6EF08F0A00E3526050E362236BEB4EF07
:1011500008F0365007E1030E355CD8B0B2EF08F066
:10116000B4EF08F0C2EF08F036AEC0EF08F0FE0EA4
:10117000355CFF0E3658D8B0C0EF08F0C2EF08F06B
:10118000D0EF08F035C010F036C011F0101E111E5F
:10119000104A112A10C00AF011C00BF06EEC0AF0D0
:1011A000406AECEF08F04250106E116A1150000ACC
:1011B000D8B4DDEF08F0ECEF08F01050000AD8B416
:1011C000BDEF07F0010AD8B4DEEF07F0030AD8B488
:1011D000F8EF07F0ECEF08F0266A4550D8B4F3EFCB
:1011E00008F0F5EF08F0FFEF08F0050E4560FBEFA3
:1011F00008F0FDEF08F0FFEF08F0010E266E265014
:10120000D8A405EF09F008EF09F0010E09EF09F085
:10121000000E246E276A4150D8B411EF09F013EF85
:1012200009F01DEF09F02450D8A419EF09F01BEFC5
:1012300009F01DEF09F0010E276E2750D8A423EF07
:1012400009F026EF09F0010E27EF09F0000E256ED8
:1012500025508CEC0BF01C50315C106E1D50325838
:10126000116E1E503358126E1F503458136E1350A7
:1012700012100BE1200E105C1C0E1158D8A043EF89
:1012800009F045EF09F04FEF09F031C01CF032C012
:101290001DF033C01EF034C01FF0C5EC0BF0D00EB3
:1012A000106ECA0EE82EFED7102EFCD762EF07F0A4
:1012B00019EF00F0076A05BE62EF09F060EF09F070
:1012C00068EF09F0046C051ED8B0052A010E076E00
:1012D00003BE6FEF09F06DEF09F075EF09F0026CD6
:1012E000031ED8B0032A010E071A096A000E086E01
:1012F00004500510D8B47FEF09F081EF09F0A9EF91
:1013000009F0010E066E89EF09F0D8900436053613
:10131000062A05AE8EEF09F090EF09F085EF09F08F
:10132000D890083609360450025C05500358D8A0FE
:101330009CEF09F09EEF09F0A3EF09F00450025E64
:101340000550035A0880D89005320432062E90EFDB
:1013500009F00750D8B4AFEF09F0B1EF09F0B5EFDD
:1013600009F0086C091ED8B0092A08C002F009C0AB
:1013700003F01200036E170E0364C1EF09F0C3EF10
:1013800009F0C4EF09F0036A03B0C9EF09F0CDEF2B
:1013900009F0026A022ACEEF09F0026A7F500218B1
:1013A000FE0B02187F6E03B2D8EF09F0DCEF09F0F4
:1013B000026A022ADDEF09F0026A02467F50021833
:1013C000FD0B02187F6E03B4E8EF09F0ECEF09F0B3
:1013D000026A022AEDEF09F0026A024602467950DB
:1013E0000218FB0B0218796E03B6F9EF09F0FDEF56
:1013F00009F0026A022AFEEF09F0026A023A024686
:1014000002467E500218BF0B02187E6E03B80BEF27
:101410000AF00FEF0AF0026A022A10EF0AF0026ADD
:10142000023A79500218EF0B0218796E1200076A1F
:1014300003BE1FEF0AF01DEF0AF025EF0AF0026C61
:10144000031ED8B0032A010E076E05BE2CEF0AF06A
:101450002AEF0AF030EF0AF0046C051ED8B0052A16
:1014600004500510D8B437EF0AF039EF0AF05DEFF9
:101470000AF0010E066E41EF0AF0D89004360536E8
:10148000062A05AE46EF0AF048EF0AF03DEF0AF0F3
:101490000450025C05500358D8A051EF0AF053EFF6
:1014A0000AF057EF0AF00450025E0550035AD89034
:1014B00005320432062E48EF0AF00750D8B463EF25
:1014C0000AF065EF0AF069EF0AF0026C031ED8B06B
:1014D000032A02C002F003C003F0120045503C0D85
:1014E000F3CF0CF0F4CF0DF044500C240E6E000E30
:1014F0000D200F6E0A500E260B500F2284EF0AF0BB
:10150000A00E0E26050E0F220FBE89EF0AF08BEFFC
:101510000AF080EF0AF091EF0AF0600E0E26FA0E44
:101520000F220FBE9FEF0AF0A00E0E5C050E0F58A3
:10153000D8B09DEF0AF09FEF0AF08DEF0AF00EC0D1
:1015400002F00FC003F0056A3C0E046E5AEC09F07D
:101550000250456E0EC002F00FC003F0056A3C0E4B
:10156000046E17EC0AF00250446E436A1200076AD8
:10157000000E066E04500510D8B4C1EF0AF0C3EF98
:101580000AF0EBEF0AF0010E086ECBEF0AF0D890EC
:1015900004360536082A05AED0EF0AF0D2EF0AF07D
:1015A000C7EF0AF0D890063607360450025C0550A3
:1015B0000358D8A0DEEF0AF0E0EF0AF0E5EF0AF0FA
:1015C0000450025E0550035A0680D890053204325A
:1015D000082ED2EF0AF006C002F007C003F0120096
:1015E00006680768030E0F015F6F6080FBEF0AF06B
:1015F0000606D8A0070660A000EF0BF002EF0BF084
:101600000BEF0BF006500710D8A409EF0BF00BEF0F
:101610000BF0F8EF0AF006500710D8A412EF0BF009
:1016200014EF0BF01AEF0BF0020E036E000E026EB9
:1016300023EF0BF06450056E046A6350041204C07B
:1016400002F005C003F01200432A3B0E43642BEF67
:101650000BF02DEF0BF042EF0BF0436A442A3B0EE8
:10166000446435EF0BF037EF0BF042EF0BF0446AB8
:10167000452A170E45643FEF0BF041EF0BF042EFA8
:101680000BF0456A1200000EF2BE010E0A6EF29EC9
:1016900037C006F038C007F039C008F03AC009F08A
:1016A0000AB002D0F29E01D0F28E06C002F007C04E
:1016B00003F008C004F009C005F0120087907F9085
:1016C00087927F920E01929581947994B49D869C25
:1016D0007E9C929981987998929B819A799AB491FB
:1016E00086907E9082907A9082927A921200D59E15
:1016F000D588D6501F0B4009D66ED688D650F00B31
:101700000809D66ED468FC0ED36E0E01339B298B6C
:10171000F28CF28ED58E1200036E0350D8A493EF94
:101720000BF097EF0BF0026A022A98EF0BF0026AB7
:1017300002467A500218FD0B02187A6E120000EE73
:1017400037F00F0EEE6AE806FDE101900192000EFF
:10175000F86E000101EF07F045503C0DF3CF04F0A7
:10176000F4CF05F044500424026E000E0520036EF1
:10177000120081860E019287030E0F015F6F608851
:0E1780005C696084586B608E12007A701200F3
:020000040030CA
:02000000AAFF55
:020004009FFF5C
:00000001FF
